{
  "_format": "hh-sol-artifact-1",
  "contractName": "PolicyRegistry",
  "sourceName": "contracts/PolicyRegistry.sol",
  "abi": [
    {
      "inputs": [],
      "stateMutability": "nonpayable",
      "type": "constructor"
    },
    {
      "inputs": [],
      "name": "AccessControlBadConfirmation",
      "type": "error"
    },
    {
      "inputs": [
        {
          "internalType": "address",
          "name": "account",
          "type": "address"
        },
        {
          "internalType": "bytes32",
          "name": "neededRole",
          "type": "bytes32"
        }
      ],
      "name": "AccessControlUnauthorizedAccount",
      "type": "error"
    },
    {
      "anonymous": false,
      "inputs": [
        {
          "indexed": true,
          "internalType": "uint256",
          "name": "policyId",
          "type": "uint256"
        }
      ],
      "name": "PolicyActivated",
      "type": "event"
    },
    {
      "anonymous": false,
      "inputs": [
        {
          "indexed": true,
          "internalType": "uint256",
          "name": "policyId",
          "type": "uint256"
        },
        {
          "indexed": false,
          "internalType": "string",
          "name": "name",
          "type": "string"
        },
        {
          "indexed": false,
          "internalType": "string",
          "name": "ipfsHash",
          "type": "string"
        }
      ],
      "name": "PolicyProposed",
      "type": "event"
    },
    {
      "anonymous": false,
      "inputs": [
        {
          "indexed": true,
          "internalType": "uint256",
          "name": "policyId",
          "type": "uint256"
        }
      ],
      "name": "PolicyRevoked",
      "type": "event"
    },
    {
      "anonymous": false,
      "inputs": [
        {
          "indexed": true,
          "internalType": "bytes32",
          "name": "role",
          "type": "bytes32"
        },
        {
          "indexed": true,
          "internalType": "bytes32",
          "name": "previousAdminRole",
          "type": "bytes32"
        },
        {
          "indexed": true,
          "internalType": "bytes32",
          "name": "newAdminRole",
          "type": "bytes32"
        }
      ],
      "name": "RoleAdminChanged",
      "type": "event"
    },
    {
      "anonymous": false,
      "inputs": [
        {
          "indexed": true,
          "internalType": "bytes32",
          "name": "role",
          "type": "bytes32"
        },
        {
          "indexed": true,
          "internalType": "address",
          "name": "account",
          "type": "address"
        },
        {
          "indexed": true,
          "internalType": "address",
          "name": "sender",
          "type": "address"
        }
      ],
      "name": "RoleGranted",
      "type": "event"
    },
    {
      "anonymous": false,
      "inputs": [
        {
          "indexed": true,
          "internalType": "bytes32",
          "name": "role",
          "type": "bytes32"
        },
        {
          "indexed": true,
          "internalType": "address",
          "name": "account",
          "type": "address"
        },
        {
          "indexed": true,
          "internalType": "address",
          "name": "sender",
          "type": "address"
        }
      ],
      "name": "RoleRevoked",
      "type": "event"
    },
    {
      "inputs": [],
      "name": "DEFAULT_ADMIN_ROLE",
      "outputs": [
        {
          "internalType": "bytes32",
          "name": "",
          "type": "bytes32"
        }
      ],
      "stateMutability": "view",
      "type": "function"
    },
    {
      "inputs": [],
      "name": "EXECUTOR_ROLE",
      "outputs": [
        {
          "internalType": "bytes32",
          "name": "",
          "type": "bytes32"
        }
      ],
      "stateMutability": "view",
      "type": "function"
    },
    {
      "inputs": [],
      "name": "PROPOSER_ROLE",
      "outputs": [
        {
          "internalType": "bytes32",
          "name": "",
          "type": "bytes32"
        }
      ],
      "stateMutability": "view",
      "type": "function"
    },
    {
      "inputs": [
        {
          "internalType": "uint256",
          "name": "_policyId",
          "type": "uint256"
        }
      ],
      "name": "activatePolicy",
      "outputs": [],
      "stateMutability": "nonpayable",
      "type": "function"
    },
    {
      "inputs": [
        {
          "internalType": "bytes32",
          "name": "role",
          "type": "bytes32"
        }
      ],
      "name": "getRoleAdmin",
      "outputs": [
        {
          "internalType": "bytes32",
          "name": "",
          "type": "bytes32"
        }
      ],
      "stateMutability": "view",
      "type": "function"
    },
    {
      "inputs": [
        {
          "internalType": "bytes32",
          "name": "role",
          "type": "bytes32"
        },
        {
          "internalType": "address",
          "name": "account",
          "type": "address"
        }
      ],
      "name": "grantRole",
      "outputs": [],
      "stateMutability": "nonpayable",
      "type": "function"
    },
    {
      "inputs": [
        {
          "internalType": "bytes32",
          "name": "role",
          "type": "bytes32"
        },
        {
          "internalType": "address",
          "name": "account",
          "type": "address"
        }
      ],
      "name": "hasRole",
      "outputs": [
        {
          "internalType": "bool",
          "name": "",
          "type": "bool"
        }
      ],
      "stateMutability": "view",
      "type": "function"
    },
    {
      "inputs": [],
      "name": "nextPolicyId",
      "outputs": [
        {
          "internalType": "uint256",
          "name": "",
          "type": "uint256"
        }
      ],
      "stateMutability": "view",
      "type": "function"
    },
    {
      "inputs": [
        {
          "internalType": "uint256",
          "name": "",
          "type": "uint256"
        }
      ],
      "name": "policies",
      "outputs": [
        {
          "internalType": "string",
          "name": "name",
          "type": "string"
        },
        {
          "internalType": "string",
          "name": "ipfsHash",
          "type": "string"
        },
        {
          "internalType": "uint256",
          "name": "activationTime",
          "type": "uint256"
        },
        {
          "internalType": "bool",
          "name": "isActive",
          "type": "bool"
        }
      ],
      "stateMutability": "view",
      "type": "function"
    },
    {
      "inputs": [
        {
          "internalType": "string",
          "name": "_name",
          "type": "string"
        },
        {
          "internalType": "string",
          "name": "_ipfsHash",
          "type": "string"
        }
      ],
      "name": "proposePolicy",
      "outputs": [],
      "stateMutability": "nonpayable",
      "type": "function"
    },
    {
      "inputs": [
        {
          "internalType": "bytes32",
          "name": "role",
          "type": "bytes32"
        },
        {
          "internalType": "address",
          "name": "callerConfirmation",
          "type": "address"
        }
      ],
      "name": "renounceRole",
      "outputs": [],
      "stateMutability": "nonpayable",
      "type": "function"
    },
    {
      "inputs": [
        {
          "internalType": "uint256",
          "name": "_policyId",
          "type": "uint256"
        }
      ],
      "name": "revokePolicy",
      "outputs": [],
      "stateMutability": "nonpayable",
      "type": "function"
    },
    {
      "inputs": [
        {
          "internalType": "bytes32",
          "name": "role",
          "type": "bytes32"
        },
        {
          "internalType": "address",
          "name": "account",
          "type": "address"
        }
      ],
      "name": "revokeRole",
      "outputs": [],
      "stateMutability": "nonpayable",
      "type": "function"
    },
    {
      "inputs": [
        {
          "internalType": "bytes4",
          "name": "interfaceId",
          "type": "bytes4"
        }
      ],
      "name": "supportsInterface",
      "outputs": [
        {
          "internalType": "bool",
          "name": "",
          "type": "bool"
        }
      ],
      "stateMutability": "view",
      "type": "function"
    }
  ],
  "bytecode": "0x608060405234801561001057600080fd5b5061001c60003361004d565b506100477fb09aa5aeb3702cfd50b6b62bc4532604938f21248a27a1d5ca736082b6819cc13361004d565b506100f9565b6000828152602081815260408083206001600160a01b038516845290915281205460ff166100ef576000838152602081815260408083206001600160a01b03861684529091529020805460ff191660011790556100a73390565b6001600160a01b0316826001600160a01b0316847f2f8788117e7eff1d82e926ec794901d17c78024a50270940304540a733656f0d60405160405180910390a45060016100f3565b5060005b92915050565b610bdc806101086000396000f3fe608060405234801561001057600080fd5b50600436106100ea5760003560e01c806391d148541161008c578063cad0b8db11610066578063cad0b8db146101ff578063d3e8948314610208578063d547741f1461022b578063e0476b551461023e57600080fd5b806391d14854146101d1578063a0323ab5146101e4578063a217fddf146101f757600080fd5b80632f2ff15d116100c85780632f2ff15d1461016f57806336568abe14610184578063871ae93a146101975780638f61f4f5146101aa57600080fd5b806301ffc9a7146100ef57806307bd026514610117578063248a9ca31461014c575b600080fd5b6101026100fd3660046107f6565b610251565b60405190151581526020015b60405180910390f35b61013e7fd8aa0f3194971a2a116679f7c2090f6939c8d4e01a2a8d7e41d55e5351469e6381565b60405190815260200161010e565b61013e61015a366004610827565b60009081526020819052604090206001015490565b61018261017d366004610840565b610288565b005b610182610192366004610840565b6102b3565b6101826101a5366004610827565b6102eb565b61013e7fb09aa5aeb3702cfd50b6b62bc4532604938f21248a27a1d5ca736082b6819cc181565b6101026101df366004610840565b6103b4565b6101826101f236600461091f565b6103dd565b61013e600081565b61013e60025481565b61021b610216366004610827565b6104e0565b60405161010e94939291906109c9565b610182610239366004610840565b61061c565b61018261024c366004610827565b610641565b60006001600160e01b03198216637965db0b60e01b148061028257506301ffc9a760e01b6001600160e01b03198316145b92915050565b6000828152602081905260409020600101546102a3816106af565b6102ad83836106bc565b50505050565b6001600160a01b03811633146102dc5760405163334bd91960e11b815260040160405180910390fd5b6102e6828261074e565b505050565b7fd8aa0f3194971a2a116679f7c2090f6939c8d4e01a2a8d7e41d55e5351469e63610315816106af565b600254821061035f5760405162461bcd60e51b8152602060048201526011602482015270125b9d985b1a5908141bdb1a58de481251607a1b60448201526064015b60405180910390fd5b600082815260016020819052604080832060038101805460ff1916909317909255426002909201919091555183917fad3ecebb8c0ffc9345044219d173dbaa4b6e27caff4829a392c252e6e12d638f91a25050565b6000918252602082815260408084206001600160a01b0393909316845291905290205460ff1690565b7fb09aa5aeb3702cfd50b6b62bc4532604938f21248a27a1d5ca736082b6819cc1610407816106af565b6040805160808101825284815260208082018590526000828401819052606083018190526002548152600190915291909120815181906104479082610a91565b506020820151600182019061045c9082610a91565b506040820151816002015560608201518160030160006101000a81548160ff0219169083151502179055509050506002547f41a5ccf1c96a23da7f02fd28df395ff2b3281f52df986ea433c5c6a8b74d1cab84846040516104be929190610b51565b60405180910390a2600280549060006104d683610b7f565b9190505550505050565b6001602052600090815260409020805481906104fb90610a07565b80601f016020809104026020016040519081016040528092919081815260200182805461052790610a07565b80156105745780601f1061054957610100808354040283529160200191610574565b820191906000526020600020905b81548152906001019060200180831161055757829003601f168201915b50505050509080600101805461058990610a07565b80601f01602080910402602001604051908101604052809291908181526020018280546105b590610a07565b80156106025780601f106105d757610100808354040283529160200191610602565b820191906000526020600020905b8154815290600101906020018083116105e557829003601f168201915b50505050600283015460039093015491929160ff16905084565b600082815260208190526040902060010154610637816106af565b6102ad838361074e565b7fd8aa0f3194971a2a116679f7c2090f6939c8d4e01a2a8d7e41d55e5351469e6361066b816106af565b600082815260016020526040808220600301805460ff191690555183917f817025da04b6028ccedb2541a528220c91b135e288b21254caca7862f951664c91a25050565b6106b981336107b9565b50565b60006106c883836103b4565b610746576000838152602081815260408083206001600160a01b03861684529091529020805460ff191660011790556106fe3390565b6001600160a01b0316826001600160a01b0316847f2f8788117e7eff1d82e926ec794901d17c78024a50270940304540a733656f0d60405160405180910390a4506001610282565b506000610282565b600061075a83836103b4565b15610746576000838152602081815260408083206001600160a01b0386168085529252808320805460ff1916905551339286917ff6391f5c32d9c69d2a47ea670b442974b53935d1edc7fd64eb21e047a839171b9190a4506001610282565b6107c382826103b4565b6107f25760405163e2517d3f60e01b81526001600160a01b038216600482015260248101839052604401610356565b5050565b60006020828403121561080857600080fd5b81356001600160e01b03198116811461082057600080fd5b9392505050565b60006020828403121561083957600080fd5b5035919050565b6000806040838503121561085357600080fd5b8235915060208301356001600160a01b038116811461087157600080fd5b809150509250929050565b634e487b7160e01b600052604160045260246000fd5b600082601f8301126108a357600080fd5b813567ffffffffffffffff808211156108be576108be61087c565b604051601f8301601f19908116603f011681019082821181831017156108e6576108e661087c565b816040528381528660208588010111156108ff57600080fd5b836020870160208301376000602085830101528094505050505092915050565b6000806040838503121561093257600080fd5b823567ffffffffffffffff8082111561094a57600080fd5b61095686838701610892565b9350602085013591508082111561096c57600080fd5b5061097985828601610892565b9150509250929050565b6000815180845260005b818110156109a95760208185018101518683018201520161098d565b506000602082860101526020601f19601f83011685010191505092915050565b6080815260006109dc6080830187610983565b82810360208401526109ee8187610983565b6040840195909552505090151560609091015292915050565b600181811c90821680610a1b57607f821691505b602082108103610a3b57634e487b7160e01b600052602260045260246000fd5b50919050565b601f8211156102e6576000816000526020600020601f850160051c81016020861015610a6a5750805b601f850160051c820191505b81811015610a8957828155600101610a76565b505050505050565b815167ffffffffffffffff811115610aab57610aab61087c565b610abf81610ab98454610a07565b84610a41565b602080601f831160018114610af45760008415610adc5750858301515b600019600386901b1c1916600185901b178555610a89565b600085815260208120601f198616915b82811015610b2357888601518255948401946001909101908401610b04565b5085821015610b415787850151600019600388901b60f8161c191681555b5050505050600190811b01905550565b604081526000610b646040830185610983565b8281036020840152610b768185610983565b95945050505050565b600060018201610b9f57634e487b7160e01b600052601160045260246000fd5b506001019056fea26469706673582212205a459c21ce96e1e390bc570586e7293dc991e08582d34ffc9cce01c7043e8e8e64736f6c63430008180033",
  "linkReferences": {},
  "deployedLinkReferences": {}
}