{
  "_format": "hh-sol-artifact-1",
  "contractName": "VeritasVault",
  "sourceName": "contracts/VeritasVault.sol",
  "abi": [
    {
      "inputs": [],
      "stateMutability": "nonpayable",
      "type": "constructor"
    },
    {
      "inputs": [],
      "name": "AccessControlBadConfirmation",
      "type": "error"
    },
    {
      "inputs": [
        {
          "internalType": "address",
          "name": "account",
          "type": "address"
        },
        {
          "internalType": "bytes32",
          "name": "neededRole",
          "type": "bytes32"
        }
      ],
      "name": "AccessControlUnauthorizedAccount",
      "type": "error"
    },
    {
      "anonymous": false,
      "inputs": [
        {
          "indexed": true,
          "internalType": "string",
          "name": "claimId",
          "type": "string"
        },
        {
          "indexed": true,
          "internalType": "address",
          "name": "recipient",
          "type": "address"
        },
        {
          "indexed": false,
          "internalType": "uint256",
          "name": "amount",
          "type": "uint256"
        }
      ],
      "name": "ClaimPaid",
      "type": "event"
    },
    {
      "anonymous": false,
      "inputs": [
        {
          "indexed": true,
          "internalType": "string",
          "name": "claimId",
          "type": "string"
        },
        {
          "indexed": true,
          "internalType": "string",
          "name": "evidenceHash",
          "type": "string"
        },
        {
          "indexed": false,
          "internalType": "uint256",
          "name": "timestamp",
          "type": "uint256"
        }
      ],
      "name": "EvidenceLogged",
      "type": "event"
    },
    {
      "anonymous": false,
      "inputs": [
        {
          "indexed": true,
          "internalType": "address",
          "name": "sender",
          "type": "address"
        },
        {
          "indexed": false,
          "internalType": "uint256",
          "name": "amount",
          "type": "uint256"
        }
      ],
      "name": "FundsDeposited",
      "type": "event"
    },
    {
      "anonymous": false,
      "inputs": [
        {
          "indexed": true,
          "internalType": "bytes32",
          "name": "role",
          "type": "bytes32"
        },
        {
          "indexed": true,
          "internalType": "bytes32",
          "name": "previousAdminRole",
          "type": "bytes32"
        },
        {
          "indexed": true,
          "internalType": "bytes32",
          "name": "newAdminRole",
          "type": "bytes32"
        }
      ],
      "name": "RoleAdminChanged",
      "type": "event"
    },
    {
      "anonymous": false,
      "inputs": [
        {
          "indexed": true,
          "internalType": "bytes32",
          "name": "role",
          "type": "bytes32"
        },
        {
          "indexed": true,
          "internalType": "address",
          "name": "account",
          "type": "address"
        },
        {
          "indexed": true,
          "internalType": "address",
          "name": "sender",
          "type": "address"
        }
      ],
      "name": "RoleGranted",
      "type": "event"
    },
    {
      "anonymous": false,
      "inputs": [
        {
          "indexed": true,
          "internalType": "bytes32",
          "name": "role",
          "type": "bytes32"
        },
        {
          "indexed": true,
          "internalType": "address",
          "name": "account",
          "type": "address"
        },
        {
          "indexed": true,
          "internalType": "address",
          "name": "sender",
          "type": "address"
        }
      ],
      "name": "RoleRevoked",
      "type": "event"
    },
    {
      "inputs": [],
      "name": "DEFAULT_ADMIN_ROLE",
      "outputs": [
        {
          "internalType": "bytes32",
          "name": "",
          "type": "bytes32"
        }
      ],
      "stateMutability": "view",
      "type": "function"
    },
    {
      "inputs": [],
      "name": "LOG_ROLE",
      "outputs": [
        {
          "internalType": "bytes32",
          "name": "",
          "type": "bytes32"
        }
      ],
      "stateMutability": "view",
      "type": "function"
    },
    {
      "inputs": [],
      "name": "WITHDRAW_ROLE",
      "outputs": [
        {
          "internalType": "bytes32",
          "name": "",
          "type": "bytes32"
        }
      ],
      "stateMutability": "view",
      "type": "function"
    },
    {
      "inputs": [],
      "name": "depositFunds",
      "outputs": [],
      "stateMutability": "payable",
      "type": "function"
    },
    {
      "inputs": [
        {
          "internalType": "bytes32",
          "name": "role",
          "type": "bytes32"
        }
      ],
      "name": "getRoleAdmin",
      "outputs": [
        {
          "internalType": "bytes32",
          "name": "",
          "type": "bytes32"
        }
      ],
      "stateMutability": "view",
      "type": "function"
    },
    {
      "inputs": [
        {
          "internalType": "bytes32",
          "name": "role",
          "type": "bytes32"
        },
        {
          "internalType": "address",
          "name": "account",
          "type": "address"
        }
      ],
      "name": "grantRole",
      "outputs": [],
      "stateMutability": "nonpayable",
      "type": "function"
    },
    {
      "inputs": [
        {
          "internalType": "bytes32",
          "name": "role",
          "type": "bytes32"
        },
        {
          "internalType": "address",
          "name": "account",
          "type": "address"
        }
      ],
      "name": "hasRole",
      "outputs": [
        {
          "internalType": "bool",
          "name": "",
          "type": "bool"
        }
      ],
      "stateMutability": "view",
      "type": "function"
    },
    {
      "inputs": [
        {
          "internalType": "string",
          "name": "claimId",
          "type": "string"
        },
        {
          "internalType": "string",
          "name": "evidenceHash",
          "type": "string"
        }
      ],
      "name": "logEvidence",
      "outputs": [],
      "stateMutability": "nonpayable",
      "type": "function"
    },
    {
      "inputs": [
        {
          "internalType": "address payable",
          "name": "recipient",
          "type": "address"
        },
        {
          "internalType": "string",
          "name": "claimId",
          "type": "string"
        }
      ],
      "name": "payoutClaim",
      "outputs": [],
      "stateMutability": "payable",
      "type": "function"
    },
    {
      "inputs": [
        {
          "internalType": "bytes32",
          "name": "role",
          "type": "bytes32"
        },
        {
          "internalType": "address",
          "name": "callerConfirmation",
          "type": "address"
        }
      ],
      "name": "renounceRole",
      "outputs": [],
      "stateMutability": "nonpayable",
      "type": "function"
    },
    {
      "inputs": [
        {
          "internalType": "bytes32",
          "name": "role",
          "type": "bytes32"
        },
        {
          "internalType": "address",
          "name": "account",
          "type": "address"
        }
      ],
      "name": "revokeRole",
      "outputs": [],
      "stateMutability": "nonpayable",
      "type": "function"
    },
    {
      "inputs": [
        {
          "internalType": "bytes4",
          "name": "interfaceId",
          "type": "bytes4"
        }
      ],
      "name": "supportsInterface",
      "outputs": [
        {
          "internalType": "bool",
          "name": "",
          "type": "bool"
        }
      ],
      "stateMutability": "view",
      "type": "function"
    },
    {
      "inputs": [
        {
          "internalType": "uint256",
          "name": "amount",
          "type": "uint256"
        }
      ],
      "name": "withdraw",
      "outputs": [],
      "stateMutability": "nonpayable",
      "type": "function"
    },
    {
      "stateMutability": "payable",
      "type": "receive"
    }
  ],
  "bytecode": "0x608060405234801561001057600080fd5b5061001c600033610078565b506100477f5d8e12c39142ff96d79d04d15d1ba1269e4fe57bb9d26f43523628b34ba108ec33610078565b506100727f623a566f42f0f30618ab24e9903eaaf7cf902acd0ef6a22c96e11d07b8bc54ec33610078565b50610124565b6000828152602081815260408083206001600160a01b038516845290915281205460ff1661011a576000838152602081815260408083206001600160a01b03861684529091529020805460ff191660011790556100d23390565b6001600160a01b0316826001600160a01b0316847f2f8788117e7eff1d82e926ec794901d17c78024a50270940304540a733656f0d60405160405180910390a450600161011e565b5060005b92915050565b610a21806101336000396000f3fe6080604052600436106100c65760003560e01c806336568abe1161007f578063d547741f11610059578063d547741f14610265578063e02023a114610285578063e2c41dbc146102b9578063ef4c0a27146102c157600080fd5b806336568abe1461021057806391d1485414610230578063a217fddf1461025057600080fd5b806301ffc9a71461010757806316a5dc851461013c578063177c696e1461017e578063248a9ca3146101a05780632e1a7d4d146101d05780632f2ff15d146101f057600080fd5b366101025760405134815233907f543ba50a5eec5e6178218e364b1d0f396157b3c8fa278522c2cb7fd99407d4749060200160405180910390a2005b600080fd5b34801561011357600080fd5b50610127610122366004610842565b6102d4565b60405190151581526020015b60405180910390f35b34801561014857600080fd5b506101707f623a566f42f0f30618ab24e9903eaaf7cf902acd0ef6a22c96e11d07b8bc54ec81565b604051908152602001610133565b34801561018a57600080fd5b5061019e6101993660046108bc565b61030b565b005b3480156101ac57600080fd5b506101706101bb366004610928565b60009081526020819052604090206001015490565b3480156101dc57600080fd5b5061019e6101eb366004610928565b61039f565b3480156101fc57600080fd5b5061019e61020b366004610956565b610450565b34801561021c57600080fd5b5061019e61022b366004610956565b61047b565b34801561023c57600080fd5b5061012761024b366004610956565b6104ae565b34801561025c57600080fd5b50610170600081565b34801561027157600080fd5b5061019e610280366004610956565b6104d7565b34801561029157600080fd5b506101707f5d8e12c39142ff96d79d04d15d1ba1269e4fe57bb9d26f43523628b34ba108ec81565b61019e6104fc565b61019e6102cf366004610986565b610533565b60006001600160e01b03198216637965db0b60e01b148061030557506301ffc9a760e01b6001600160e01b03198316145b92915050565b7f623a566f42f0f30618ab24e9903eaaf7cf902acd0ef6a22c96e11d07b8bc54ec610335816106fb565b82826040516103459291906109db565b6040518091039020858560405161035d9291906109db565b604051908190038120428252907f5c2c176d08acbf68f8d378be8c173b05e881f2cd7f358bcc6efd93fc08616a79906020015b60405180910390a35050505050565b7f5d8e12c39142ff96d79d04d15d1ba1269e4fe57bb9d26f43523628b34ba108ec6103c9816106fb565b8147101561041e5760405162461bcd60e51b815260206004820152601b60248201527f566572697461733a20496e73756666696369656e742066756e6473000000000060448201526064015b60405180910390fd5b604051339083156108fc029084906000818181858888f1935050505015801561044b573d6000803e3d6000fd5b505050565b60008281526020819052604090206001015461046b816106fb565b6104758383610708565b50505050565b6001600160a01b03811633146104a45760405163334bd91960e11b815260040160405180910390fd5b61044b828261079a565b6000918252602082815260408084206001600160a01b0393909316845291905290205460ff1690565b6000828152602081905260409020600101546104f2816106fb565b610475838361079a565b60405134815233907f543ba50a5eec5e6178218e364b1d0f396157b3c8fa278522c2cb7fd99407d4749060200160405180910390a2565b7f5d8e12c39142ff96d79d04d15d1ba1269e4fe57bb9d26f43523628b34ba108ec61055d816106fb565b344710156105b75760405162461bcd60e51b815260206004820152602160248201527f566572697461733a20496e73756666696369656e74207661756c742066756e646044820152607360f81b6064820152608401610415565b600034116106075760405162461bcd60e51b815260206004820152601b60248201527f566572697461733a20416d6f756e74206d757374206265203e203000000000006044820152606401610415565b6000846001600160a01b03163460405160006040518083038185875af1925050503d8060008114610654576040519150601f19603f3d011682016040523d82523d6000602084013e610659565b606091505b50509050806106aa5760405162461bcd60e51b815260206004820152601860248201527f566572697461733a205472616e73666572206661696c656400000000000000006044820152606401610415565b846001600160a01b031684846040516106c49291906109db565b604051908190038120348252907f76e437d18d24a9267492e4a0067fa7acd2cdac8c25511b23e8f3760ceaa217ab90602001610390565b6107058133610805565b50565b600061071483836104ae565b610792576000838152602081815260408083206001600160a01b03861684529091529020805460ff1916600117905561074a3390565b6001600160a01b0316826001600160a01b0316847f2f8788117e7eff1d82e926ec794901d17c78024a50270940304540a733656f0d60405160405180910390a4506001610305565b506000610305565b60006107a683836104ae565b15610792576000838152602081815260408083206001600160a01b0386168085529252808320805460ff1916905551339286917ff6391f5c32d9c69d2a47ea670b442974b53935d1edc7fd64eb21e047a839171b9190a4506001610305565b61080f82826104ae565b61083e5760405163e2517d3f60e01b81526001600160a01b038216600482015260248101839052604401610415565b5050565b60006020828403121561085457600080fd5b81356001600160e01b03198116811461086c57600080fd5b9392505050565b60008083601f84011261088557600080fd5b50813567ffffffffffffffff81111561089d57600080fd5b6020830191508360208285010111156108b557600080fd5b9250929050565b600080600080604085870312156108d257600080fd5b843567ffffffffffffffff808211156108ea57600080fd5b6108f688838901610873565b9096509450602087013591508082111561090f57600080fd5b5061091c87828801610873565b95989497509550505050565b60006020828403121561093a57600080fd5b5035919050565b6001600160a01b038116811461070557600080fd5b6000806040838503121561096957600080fd5b82359150602083013561097b81610941565b809150509250929050565b60008060006040848603121561099b57600080fd5b83356109a681610941565b9250602084013567ffffffffffffffff8111156109c257600080fd5b6109ce86828701610873565b9497909650939450505050565b818382376000910190815291905056fea2646970667358221220b0259515505cc12f02585c1c04d68109264c4e3bf7053e6a40454d8c9cb45a5664736f6c63430008180033",
  "linkReferences": {},
  "deployedLinkReferences": {}
}